:100000000C94F2000C940F010C940F010C940F014E
:100010000C940F010C940F010C940F010C940F0120
:100020000C940F010C940F010C940F010C940F0110
:100030000C940F010C940F010C940F010C940F0100
:100040000C940F010C940F010C940F010C940F01F0
:100050000C940F010C940F010C940F010C940F01E0
:100060000C940F010C940F0108000000BE9224496B
:10007000123EABAAAA2ABECDCCCC4C3E00000080DA
:10008000BEABAAAAAA3E00000000BF000000803F4D
:100090000000000000084178D3BB4387D1133D190D
:1000A0000E3CC3BD4282AD2B3E68EC8276BED98F3A
:1000B000E1A93E4C80EFFFBE01C4FF7F3F0000007E
:1000C000000007634236B79BD8A71A39685618AEA6
:1000D000BAAB558C1D3CB7CC5763BD6DEDFD753E7D
:1000E000F6177231BF000000803F00407A10F35ACB
:1000F00000A0724E18090010A5D4E80000E8764868
:10010000170000E40B54020000CA9A3B000000E113
:10011000F505000080969800000040420F000000A6
:10012000A08601000000102700000000E803000086
:1001300000006400000000000A0000000000010050
:10014000000000002C76D888DC674F0823DFC1DF71
:10015000AE59E1B1B796E5E3E453C63AE651997674
:1001600096E8E6C28426EB898C9B62ED407C6FFCAE
:10017000EFBC9C9F40F2BAA56FA5F490055A2AF7F0
:100180005C936B6CF9676DC11BFCE0E40D47FEF5F9
:1001900020E6B500D0ED902E030094357705008061
:1001A000841E080000204E0A000000C80C333333C0
:1001B000330F986E12831141EF8D2114893BE65560
:1001C00016CFFEE6DB18D1844B381BF77C1D901D43
:1001D000A4BBE424203284725E228100C9F124ECA5
:1001E000A1E53D2711241FBECFEFD8E0DEBFCDBF74
:1001F00011E0A0E0B1E0E6E3F2E102C005900D926B
:10020000A430B107D9F721E0A4E0B1E001C01D920C
:10021000A532B207E1F70E94CF020C9419090C94A1
:1002200000009BB1907F8F70892B8BB95E985E9A8E
:100230005E9887E592E00197F1F700C0000008950D
:10024000CF93C82F662311F05C9A01C05C985D982B
:100250008C2F82958F700E9411018C2FCF910C945E
:10026000110160E00C94200161E00C9420018AB13E
:100270008F678AB98FE295E70197F1F700C0000018
:100280008BB18F788BB987E090E20197F1F700C0CE
:10029000000083E00E94110187E090E20197F1F7EE
:1002A00000C0000083E00E94110187E090E2019706
:1002B000F1F700C0000083E00E94110187E090E2A6
:1002C0000197F1F700C0000082E00E94110188E26E
:1002D0000E9431011092140188E00C943101809148
:1002E0001401982F9460909314018C600C94310148
:1002F000809114018B7F8093140188600C943101EC
:1003000081E00E9431018FE99FE00197F1F700C081
:100310000000089582E00E9431018FE99FE001977B
:10032000F1F700C00000089580911401982F9160AA
:100330009093140189600C943101809114018E7F97
:100340008093140188600C94310180911401982FDE
:100350009260909314018A600C9431018091140191
:100360008D7F8093140188600C94310188E10C9496
:1003700031018CE10C94310180911401982F92602D
:100380009093140186600C943101809114018D7F4B
:100390008093140184600C94310180911401982F92
:1003A00091609093140185600C9431018091140147
:1003B0008E7F8093140184600C9431010F931F93FE
:1003C000CF93DF938B01877028E0829FC0011124B7
:1003D00080640E943101E801085F1F4F89910E94EB
:1003E0003401C017D107D1F7DF91CF911F910F9141
:1003F0000895E62FF0E0E050FF4F9081890F80686C
:100400000C943101CF93DF93EC018991882319F08B
:100410000E943401FACFDF91CF910895CF92DF92FD
:10042000EF92FF920F931F93CF93DF93C62ED82E98
:10043000EC01042F10E000501F4F9C2F9D197E01EE
:100440008881882369F0F80180818C0D890F80688C
:100450000E9431012196F70180810E943401EDCF85
:10046000DF91CF911F910F91FF90EF90DF90CF9090
:1004700008958F929F92AF92BF92CF92DF92EF92A8
:10048000FF929C0140E050E060EF78E18CE990E061
:100490000E94F002CA01B9016051774281099109B5
:1004A0000E94120460931D0170931E0180931F012E
:1004B000909320010E94A6046B017C0160932101AE
:1004C00070932201809323019093240120E030E077
:1004D00040E450E40E945B054B015C012DE83AE3E7
:1004E00046E759E3C701B6010E94EE0424EB3FE65C
:1004F00043E95AE30E9432036B017C012FE339E8A0
:1005000046EB53E3C501B4010E94EE049B01AC012C
:10051000C701B6010E9432039B01AC0160E070E0AC
:1005200080E89FE30E949E0360931501709316017B
:10053000809317019093180123E333E948E853E4CB
:100540000E9431036093190170931A0180931B017B
:1005500090931C01FF90EF90DF90CF90BF90AF90F1
:100560009F908F90089580E480937C0086E880932C
:100570007A00089590917C00987F8770892B8093F2
:100580007C0080917A00806480937A0080917A0068
:1005900086FDFCCF809178009091790008950E94AB
:1005A000B3020E94370180E00E94BA0290930501D5
:1005B000809304010E94390260931001709311012D
:1005C000809312019093130106E011E022E046E0CF
:1005D0000E94900640E060E0C8010E940E02E3CF56
:1005E000052E97FB1EF400940E94070357FD07D0C9
:1005F0000E940F0307FC03D04EF40C9407035095A0
:100600004095309521953F4F4F4F5F4F08959095FE
:100610008095709561957F4F8F4F9F4F0895A1E210
:100620001A2EAA1BBB1BFD010DC0AA1FBB1FEE1F6C
:10063000FF1FA217B307E407F50720F0A21BB30BB7
:10064000E40BF50B661F771F881F991F1A9469F733
:1006500060957095809590959B01AC01BD01CF018F
:1006600008955058BB27AA270E9449030C9464049C
:100670000E94560438F00E945D0420F039F49F3F38
:1006800019F426F40C9453040EF4E095E7FB0C9453
:100690004D04E92F0E94750458F3BA1762077307D7
:1006A0008407950720F079F4A6F50C9497040EF4CE
:1006B000E0950B2EBA2FA02D0B01B90190010C0172
:1006C000CA01A0011124FF27591B99F0593F50F48A
:1006D000503E68F11A16F040A22F232F342F4427E2
:1006E000585FF3CF469537952795A795F0405395DA
:1006F000C9F77EF41F16BA0B620B730B840BBAF0AA
:100700009150A1F0FF0FBB1F661F771F881FC2F714
:100710000EC0BA0F621F731F841F48F48795779528
:100720006795B795F7959E3F08F0B0CF9395880FE2
:1007300008F09927EE0F9795879508950E94B203C8
:100740000C9464040E945D0458F00E94560440F02A
:1007500029F45F3F29F00C944D0451110C94980436
:100760000C9453040E94750468F39923B1F3552344
:1007700091F3951B550BBB27AA27621773078407B4
:1007800038F09F5F5F4F220F331F441FAA1FA9F34A
:1007900035D00E2E3AF0E0E832D091505040E69538
:1007A000001CCAF72BD0FE2F29D0660F771F881F99
:1007B000BB1F261737074807AB07B0E809F0BB0B8C
:1007C000802DBF01FF2793585F4F3AF09E3F5105A0
:1007D00078F00C944D040C9498045F3FE4F3983E39
:1007E000D4F3869577956795B795F7959F5FC9F789
:1007F000880F911D9695879597F90895E1E0660F0A
:10080000771F881FBB1F621773078407BA0720F082
:10081000621B730B840BBA0BEE1F88F7E0950895EB
:10082000E89409C097FB3EF490958095709561958A
:100830007F4F8F4F9F4F9923A9F0F92F96E9BB2740
:100840009395F695879577956795B795F111F8CFBC
:10085000FAF4BB0F11F460FF1BC06F5F7F4F8F4F27
:100860009F4F16C0882311F096E911C0772321F01D
:100870009EE8872F762F05C0662371F096E8862FB5
:1008800070E060E02AF09A95660F771F881FDAF70C
:10089000880F9695879597F9089597F99F6780E84F
:1008A00070E060E008959FEF80EC089500240A94C2
:1008B0001616170618060906089500240A9412163B
:1008C0001306140605060895092E0394000C11F46E
:1008D000882352F0BB0F40F4BF2B11F460FF04C01B
:1008E0006F5F7F4F8F4F9F4F089557FD9058440F74
:1008F000551F59F05F3F71F04795880F97FB991F7F
:1009000061F09F3F79F0879508951216130614063B
:10091000551FF2CF4695F1DF08C0161617061806C8
:10092000991FF1CF86957105610508940895E894A3
:10093000BB2766277727CB0197F9089516F00C940B
:10094000E5050C94530468940C944D040E947D04B6
:10095000A8F39923C1F3AEF3DF93CF931F930F93C3
:10096000FF92C92FDD2788232AF02197660F771F72
:10097000881FDAF720E030E040E85FEB9FE388393A
:1009800020F0803E38F021968F770E943203E8E60F
:10099000F0E004C00E943203E5E9F0E00E94F305B4
:1009A0008B01BE01EC01FB2E6F5771097595771F06
:1009B000880B990B0E94120428E132E741E35FE3C0
:1009C0000E940105AF2D9801AE01FF900F911F917C
:1009D000CF91DF910E9449030C9464040E940105A9
:1009E0000C9464040E94560438F00E945D0420F0C8
:1009F000952311F00C944D040C94530411240C9481
:100A000098040E94750470F3959FC1F3950F50E010
:100A1000551F629FF001729FBB27F00DB11D639FB0
:100A2000AA27F00DB11DAA1F649F6627B00DA11D56
:100A3000661F829F2227B00DA11D621F739FB00DFC
:100A4000A11D621F839FA00D611D221F749F33276C
:100A5000A00D611D231F849F600D211D822F762F05
:100A60006A2F11249F5750409AF0F1F088234AF0E2
:100A7000EE0FFF1FBB1F661F771F881F915050404E
:100A8000A9F79E3F510580F00C944D040C949804F6
:100A90005F3FE4F3983ED4F3869577956795B795D5
:100AA000F795E7959F5FC1F7FE2B880F911D9695EF
:100AB000879597F90895FA01EE0FFF1F30962105EB
:100AC0003105A1F16115710561F48038BFE39B0721
:100AD00049F168949038810561F08038BFEF9B0739
:100AE00041F099234AF5FF3FE1053105210519F150
:100AF000E8940894E795D901AA2329F4AB2FBE2FD7
:100B0000F85FD0F310C0FF5F70F4A695E0F7F739F7
:100B100050F019F0FF3A38F49F779F930DD00F9063
:100B200007FC9058089546F00C94530460E070E080
:100B300080E89FE308954FE79F775F934F933F933C
:100B40002F930E94A6042F913F914F915F910E9495
:100B5000EE040C94B30529F416F00C944D040C9497
:100B600097040C9453040E947D04A8F39638A0F7D0
:100B700007F80F92E8942BE33AEA48EB5FE70E940C
:100B800004050F920F920F924DB75EB70F920E941D
:100B90005C06E2ECF0E00E94F3054F915F91EF916B
:100BA000FF91E595EE1FFF1F49F0FE57E0684427CF
:100BB000EE0F441FFA95E1F74195550B0E9426066A
:100BC0000F9007FE0C941A0608959F3F31F0915044
:100BD00020F4879577956795B795880F911D969521
:100BE000879597F90895DF93CF931F930F93FF9203
:100BF000EF92DF927B018C01689406C0DA2EEF0140
:100C00000E940105FE01E894A59125913591459139
:100C10005591A6F3EF010E944903FE019701A80137
:100C2000DA9469F7DF90EF90FF900F911F91CF91C9
:100C3000DF9108959B01AC0160E070E080E89FE3E4
:100C40000C949E030C944D040C94E5050E947D04C5
:100C5000D8F39923C9F3940F511DA3F39150504039
:100C600094F059F0882332F0660F771F881F915057
:100C70005040C1F79E3F51052CF7880F911D969566
:100C8000879597F908955F3FACF0983E9CF0BB279D
:100C9000869577956795B79508F4B1609395C1F7F8
:100CA000BB0F58F711F460FFE8CF6F5F7F4F8F4F96
:100CB0009F4FE3CF0C949804FA01DC01AA0FBB1FED
:100CC0009B01AC01BF5728F42227332744275078D3
:100CD00020C0B75190F4AB2F002446953795279547
:100CE000011CA395D2F3002071F0220F331F441F83
:100CF000B395DAF30ED00C94310361307105A0E89E
:100D00008A07B94630F49B01AC016627772788270C
:100D10009078309621F02083318342835383089565
:100D2000EF920F931F93CF93DF93E80147FD02C02B
:100D300034E001C034E1042E000C550B57FF03C012
:100D4000519541955109E32E022F242FAE010E94A7
:100D5000B006CE01DF91CF911F910F91EF900895D2
:100D6000A9E0B0E0E6EBF6E00C94E8086A01122F87
:100D7000B02E2BE3201720F0FF24F394F00E02C0D6
:100D80002CE3F22E0F2D27E0AE014F5F5F4F0E9444
:100D90000A08BC014981842F8970813031F0E1FC5F
:100DA00006C0E0FE06C090E205C09DE203C09BE2E3
:100DB00001C090E05E2D507143FF3CC0911102C014
:100DC00083E001C084E0811718F4212F281B01C0A3
:100DD00020E051110BC0F601822F30E2882319F078
:100DE00031938150FBCFC20ED11C20E0992329F012
:100DF000D6019C93F60131966F01C6010396E2FE7F
:100E00000AC03EE4D6013C9341E411964C931197FD
:100E100012963C9306C03EE6F601308341E64183DC
:100E20003283FC01322F40E2332309F442C0419364
:100E30003150FACF42FF44C0911102C083E001C09B
:100E400084E0811718F4212F281B01C020E05111E4
:100E50000BC0F601822F30E2882319F031938150C4
:100E6000FBCFC20ED11C20E0992329F0D6019C9320
:100E7000F60131966F01C6010396E2FE0BC039E41C
:100E8000D6013C933EE411963C93119736E41296BA
:100E90003C9307C039E6F60130833EE6318336E6FF
:100EA0003283FC01322F40E2332319F04193315059
:100EB000FBCFFC01E20FF11D10828EEF9FEFA6C069
:100EC00021E030E0911102C020E030E01616170654
:100ED0001CF4FB01319602C0E1E0F0E02E0F3F1F51
:100EE000BB2021F0EB2DF0E0319602C0E0E0F0E015
:100EF0002E0F3F1FE12FF0E02E173F071CF4121BAF
:100F0000212F01C020E08E2D887159F4F601822F27
:100F100030E2882319F031938150FBCFC20ED11CEF
:100F200020E0992329F0D6019C93F60131966F01B8
:100F300051110BC0F601822F90E3882319F0919391
:100F40008150FBCFC20ED11C20E00F2D060F9A81DD
:100F5000342F307144FF03C0913309F4015010164F
:100F600024F4093018F008E001C001E0AB0177FF7C
:100F700002C040E050E0FB01E41BF50BA1E0B0E053
:100F8000AC0FBD1FEA0FFB1F8EE2A82E4B01801A8B
:100F900091080B2D10E01195019511094F3FBFEFFE
:100FA0005B0721F4D601AC9211966D0164177507A9
:100FB0002CF08416950614F4818101C080E3415021
:100FC00051093196D60111967D014017510724F041
:100FD000D6018C936701E2CF6417750739F4963315
:100FE00020F4953319F4311101C081E3F6018083B7
:100FF000F701822F90E2882319F091938150FBCF63
:10100000F701E20FF11D108280E090E02996ECE0FC
:101010000C940409283008F027E03327DA01990FEF
:10102000311D87FD916000966105710539F43260CC
:101030002E5F3D9330E32A95E1F708959F3F30F00E
:1010400080387105610509F03C5F3C5F3D9391304C
:1010500008F08068911DDF93CF931F930F93FF9249
:10106000EF92192F987F9695E92F96959695E90F0F
:10107000FF27EC5BFE4F99273327EE24FF24A701BF
:10108000E70105900894079428F4360FE71EF81E30
:10109000491F511D660F771F881F991F0694A1F7DE
:1010A0000590079428F4E70EF81E491F561FC11D2E
:1010B000770F881F991F661F0694A1F70590079464
:1010C00028F4F80E491F561FC71FD11D880F991FFE
:1010D000661F771F0694A1F70590079420F4490F27
:1010E000561FC71FD81F990F661F771F881F0694AA
:1010F000A9F784911095177041F0D695C79557952B
:101100004795F794E7941A95C1F7EAEEF0E06894F2
:101110001590159135916591959105907FE27395A4
:10112000E118F10A430B560BC90BD009C0F7E10CCB
:10113000F11E431F561FC91FD01D7EF4703311F4DA
:101140008A95E6CFE894015030F0080F0AF40027A2
:10115000021708F4202F2395022F7A3328F079E321
:101160007D932A95E9F710C07D932A9589F6069418
:1011700097956795379517951794E118F10A430BE2
:10118000560BC90BD00998F023957E9173957A334D
:1011900008F070E37C932013B8F77E9170617D9323
:1011A00030F0839571E37D9370E32A95E1F7112484
:1011B000EF90FF900F911F91CF91DF91992787FDBD
:1011C000909508952F923F924F925F926F927F92E7
:1011D0008F929F92AF92BF92CF92DF92EF92FF9247
:1011E0000F931F93CF93DF93CDB7DEB7CA1BDB0BF3
:1011F0000FB6F894DEBF0FBECDBF09942A88398898
:1012000048885F846E847D848C849B84AA84B9849E
:10121000C884DF80EE80FD800C811B81AA81B981AA
:10122000CE0FD11D0FB6F894DEBF0FBECDBFED01BE
:061230000895F894FFCFC1
:04123600004014540C
:00000001FF
