:100000000C9475000C9492000C9492000C94920045
:100010000C9492000C9492000C9492000C94920018
:100020000C9492000C9492000C9492000C94920008
:100030000C9492000C9492000C9492000C949200F8
:100040000C9492000C9492000C9492000C949200E8
:100050000C9492000C9492000C9492000C949200D8
:100060000C9492000C94920008000000BE92244967
:10007000123EABAAAA2ABECDCCCC4C3E00000080DA
:10008000BEABAAAAAA3E00000000BF000000803F4D
:100090000000000000084178D3BB4387D1133D190D
:1000A0000E3CC3BD4282AD2B3E68EC8276BED98F3A
:1000B000E1A93E4C80EFFFBE01C4FF7F3F0000007E
:1000C000000007634236B79BD8A71A39685618AEA6
:1000D000BAAB558C1D3CB7CC5763BD6DEDFD753E7D
:1000E000F6177231BF000000803F11241FBECFEF12
:1000F000D8E0DEBFCDBF11E0A0E0B1E0E8EBF0E179
:1001000002C005900D92A434B107D9F721E0A4E410
:10011000B1E001C01D92AA35B207E1F70E948C013F
:100120000C945A080C9400008BB9429A82E08A958C
:10013000F1F700C0429882E08A95F1F700C08AE6A4
:100140008A95F1F700C008958FEF8AB987B187606B
:1001500087B9419840988FE295E70197F1F700C081
:10016000000088E30E9494008FE097E20197F1F786
:1001700000C0000088E30E94940087EC90E00197A3
:10018000F1F700C0000088E30E94940086E00E941E
:1001900094008CE00E94940080E80E949400409AB1
:1001A0000895883A51F0883B51F0803C48F0E82FA0
:1001B000F0E0E05CFF4F808103C082EA01C085EB84
:1001C0000C949400CF93DF93EC018991882319F06C
:1001D0000E94D100FACFDF91CF9108956111805C28
:1001E000409880680E949400409A08958F929F9250
:1001F000AF92BF92CF92DF92EF92FF929C0140E0CC
:1002000050E060EF78E18CE990E00E94D001CA01F3
:10021000B90160517742810991090E94F20260930D
:1002200052017093530180935401909355010E94A1
:1002300086036B017C016093560170935701809394
:1002400058019093590120E030E040E450E40E94CE
:100250003B044B015C012DE83AE346E759E3C70153
:10026000B6010E94CE0324EB3FE643E95AE30E9425
:1002700012026B017C012FE339E846EB53E3C50121
:10028000B4010E94CE039B01AC01C701B6010E94DC
:1002900012029B01AC0160E070E080E89FE30E94E5
:1002A0007E0260934A0170934B0180934C019093BE
:1002B0004D0123E333E948E853E40E9411026093BF
:1002C0004E0170934F018093500190935101FF9024
:1002D000EF90DF90CF90BF90AF909F908F90089558
:1002E00080E480937C0086E880937A000895909162
:1002F0007C00987F8770892B80937C0080917A00A6
:10030000806480937A0080917A0086FDFCCF809192
:100310007800909179000895CF93DF93CDB7DEB741
:100320002A970FB6F894DEBF0FBECDBF0E947001B2
:100330000E94A4008AE0D82E8E010F5F1F4F90E428
:10034000E92E91E0F92EF8018D2D11928A95E9F7A9
:1003500081E00E94770190934901809348010E94B7
:10036000F6009B01AC01CB01DA018093440190932C
:100370004501A0934601B09347015F934F933F938C
:100380002F93FF92EF921F930F930E947005C80165
:100390000E94E2000FB6F894DEBF0FBECDBFD3CFF0
:1003A000052E97FB1EF400940E94E70157FD07D02D
:1003B0000E94EF0107FC03D04EF40C94E701509526
:1003C0004095309521953F4F4F4F5F4F0895909541
:1003D0008095709561957F4F8F4F9F4F0895A1E253
:1003E0001A2EAA1BBB1BFD010DC0AA1FBB1FEE1FAF
:1003F000FF1FA217B307E407F50720F0A21BB30BFA
:10040000E40BF50B661F771F881F991F1A9469F775
:1004100060957095809590959B01AC01BD01CF01D1
:1004200008955058BB27AA270E9429020C94440320
:100430000E94360338F00E943D0320F039F49F3FBC
:1004400019F426F40C9433030EF4E095E7FB0C94B6
:100450002D03E92F0E94550358F3BA17620773075B
:100460008407950720F079F4A6F50C9477030EF431
:10047000E0950B2EBA2FA02D0B01B90190010C01B4
:10048000CA01A0011124FF27591B99F0593F50F4CC
:10049000503E68F11A16F040A22F232F342F442724
:1004A000585FF3CF469537952795A795F04053951C
:1004B000C9F77EF41F16BA0B620B730B840BBAF0EC
:1004C0009150A1F0FF0FBB1F661F771F881FC2F757
:1004D0000EC0BA0F621F731F841F48F4879577956B
:1004E0006795B795F7959E3F08F0B0CF9395880F25
:1004F00008F09927EE0F9795879508950E9492022C
:100500000C9444030E943D0358F00E94360340F0CF
:1005100029F45F3F29F00C942D0351110C947803BA
:100520000C9433030E94550368F39923B1F35523C8
:1005300091F3951B550BBB27AA27621773078407F6
:1005400038F09F5F5F4F220F331F441FAA1FA9F38C
:1005500035D00E2E3AF0E0E832D091505040E6957A
:10056000001CCAF72BD0FE2F29D0660F771F881FDB
:10057000BB1F261737074807AB07B0E809F0BB0BCE
:10058000802DBF01FF2793585F4F3AF09E3F5105E2
:1005900078F00C942D030C9478035F3FE4F3983EBD
:1005A000D4F3869577956795B795F7959F5FC9F7CB
:1005B000880F911D9695879597F90895E1E0660F4C
:1005C000771F881FBB1F621773078407BA0720F0C5
:1005D000621B730B840BBA0BEE1F88F7E09508952E
:1005E000E89409C097FB3EF49095809570956195CD
:1005F0007F4F8F4F9F4F9923A9F0F92F96E9BB2783
:100600009395F695879577956795B795F111F8CFFE
:10061000FAF4BB0F11F460FF1BC06F5F7F4F8F4F69
:100620009F4F16C0882311F096E911C0772321F05F
:100630009EE8872F762F05C0662371F096E8862FF7
:1006400070E060E02AF09A95660F771F881FDAF74E
:10065000880F9695879597F9089597F99F6780E891
:1006600070E060E008959FEF80EC089500240A9404
:100670001616170618060906089500240A9412167D
:100680001306140605060895092E0394000C11F4B0
:10069000882352F0BB0F40F4BF2B11F460FF04C05D
:1006A0006F5F7F4F8F4F9F4F089557FD9058440FB6
:1006B000551F59F05F3F71F04795880F97FB991FC1
:1006C00061F09F3F79F0879508951216130614067E
:1006D000551FF2CF4695F1DF08C01616170618060B
:1006E000991FF1CF86957105610508940895E894E6
:1006F000BB2766277727CB0197F9089516F00C944E
:10070000C5040C94330368940C942D030E945D037C
:10071000A8F39923C1F3AEF3DF93CF931F930F9305
:10072000FF92C92FDD2788232AF02197660F771FB4
:10073000881FDAF720E030E040E85FEB9FE388397C
:1007400020F0803E38F021968F770E941202E8E672
:10075000F0E004C00E941202E5E9F0E00E94D30438
:100760008B01BE01EC01FB2E6F5771097595771F48
:10077000880B990B0E94F20228E132E741E35FE324
:100780000E94E103AF2D9801AE01FF900F911F91E0
:10079000CF91DF910E9429020C9444030E94E1034F
:1007A0000C9444030E94360338F00E943D0320F06D
:1007B000952311F00C942D030C94330311240C9405
:1007C00078030E94550370F3959FC1F3950F50E095
:1007D000551F629FF001729FBB27F00DB11D639FF3
:1007E000AA27F00DB11DAA1F649F6627B00DA11D99
:1007F000661F829F2227B00DA11D621F739FB00D3F
:10080000A11D621F839FA00D611D221F749F3327AE
:10081000A00D611D231F849F600D211D822F762F47
:100820006A2F11249F5750409AF0F1F088234AF024
:10083000EE0FFF1FBB1F661F771F881F9150504090
:10084000A9F79E3F510580F00C942D030C9478037A
:100850005F3FE4F3983ED4F3869577956795B79517
:10086000F795E7959F5FC1F7FE2B880F911D969531
:10087000879597F90895FA01EE0FFF1F309621052D
:100880003105A1F16115710561F48038BFE39B0763
:1008900049F168949038810561F08038BFEF9B077B
:1008A00041F099234AF5FF3FE1053105210519F192
:1008B000E8940894E795D901AA2329F4AB2FBE2F19
:1008C000F85FD0F310C0FF5F70F4A695E0F7F7393A
:1008D00050F019F0FF3A38F49F779F930DD00F90A6
:1008E00007FC9058089546F00C94330360E070E0E4
:1008F00080E89FE308954FE79F775F934F933F937F
:100900002F930E9486032F913F914F915F910E94F8
:10091000CE030C94930429F416F00C942D030C943C
:1009200077030C9433030E945D03A8F39638A0F775
:1009300007F80F92E8942BE33AEA48EB5FE70E944E
:10094000E4030F920F920F924DB75EB70F920E9481
:100950003C05E2ECF0E00E94D3044F915F91EF91EF
:10096000FF91E595EE1FFF1F49F0FE57E068442711
:10097000EE0F441FFA95E1F74195550B0E940605CD
:100980000F9007FE0C94FA0408959F3F31F09150A8
:1009900020F4879577956795B795880F911D969563
:1009A000879597F90895DF93CF931F930F93FF9245
:1009B000EF92DF927B018C01689406C0DA2EEF0182
:1009C0000E94E103FE01E894A5912591359145919E
:1009D0005591A6F3EF010E942902FE019701A8019B
:1009E000DA9469F7DF90EF90FF900F911F91CF910C
:1009F000DF9108959B01AC0160E070E080E89FE327
:100A00000C947E020C942D030C94C5040E945D038B
:100A1000D8F39923C9F3940F511DA3F3915050407B
:100A200094F059F0882332F0660F771F881F915099
:100A30005040C1F79E3F51052CF7880F911D9695A8
:100A4000879597F908955F3FACF0983E9CF0BB27DF
:100A5000869577956795B79508F4B1609395C1F73A
:100A6000BB0F58F711F460FFE8CF6F5F7F4F8F4FD8
:100A70009F4FE3CF0C947803FA01DC01AA0FBB1F50
:100A80009B01AC01BF5728F4222733274427507815
:100A900020C0B75190F4AB2F002446953795279589
:100AA000011CA395D2F3002071F0220F331F441FC5
:100AB000B395DAF30ED00C94110261307105A0E801
:100AC0008A07B94630F49B01AC016627772788274F
:100AD0009078309621F020833183428353830895A8
:100AE000AEE0B0E0E6E7F5E00C9431080D891E8930
:100AF00086E08C831A8309838FEF9FE79E838D8323
:100B0000AE01475E5F4F6F89788DCE0101960E94DE
:100B10009205EF81F885E00FF11F10822E96E4E038
:100B20000C944D08ABE0B0E0E8E9F5E00C94230844
:100B30006C017B018A01FC0117821682838181FF8F
:100B4000CCC1CE0101963C01F6019381F70193FDE2
:100B5000859193FF81917F01882309F4BAC1853281
:100B600039F493FD859193FF81917F01853229F4BA
:100B7000B60190E00E948907E7CF912C212C312CFF
:100B8000FFE1F315D8F08B3279F038F4803279F048
:100B90008332A1F4232D20611DC08D3261F080339A
:100BA00069F4232D216016C0832D8260382EE32D39
:100BB000E4603E2E2AC0F32DF8601DC037FC2DC026
:100BC00020ED280F2A3040F08E32B9F436FC81C176
:100BD000232D2064322E19C036FE06C08AE0989E6E
:100BE000200D1124922E11C0EAE02E9E200D11241A
:100BF000222EF32DF0623F2E08C08C3621F4832D77
:100C00008068382E02C0883641F4F70193FD859143
:100C100093FF81917F018111B3CF982F9F7D9554D0
:100C2000933028F40C5F1F4F9FE399830DC08336E8
:100C300031F0833771F0833509F059C021C0F801D4
:100C4000808189830E5F1F4F88248394912C5301E8
:100C500013C02801F2E04F0E511CF801A080B180B2
:100C600036FE03C0692D70E002C06FEF7FEFC50153
:100C70000E947E074C018201F32DFF773F2E16C0A4
:100C8000280122E0420E511CF801A080B18036FEFE
:100C900003C0692D70E002C06FEF7FEFC5010E94B5
:100CA00073074C01F32DF0683F2E820133FC1BC00B
:100CB000822D90E088169906B0F4B60180E290E0AB
:100CC0000E9489072A94F4CFF50137FC859137FEFD
:100CD00081915F01B60190E00E94890721102A945A
:100CE00021E0821A91088114910471F7E8C08436DA
:100CF00011F0893641F5F80137FE07C06081718136
:100D0000828193810C5F1F4F08C060817181072E23
:100D1000000C880B990B0E5F1F4FF32DFF763F2EB3
:100D200097FF09C090958095709561957F4F8F4F83
:100D30009F4FF0683F2E2AE030E0A3010E94C507D4
:100D4000882E861845C0853731F4232D2F7EB22E8C
:100D50002AE030E025C0932D997FB92E8F36C1F05F
:100D600018F4883579F0B5C0803719F0883721F04C
:100D7000B0C0E92FE061BE2EB4FE0DC0FB2DF460C3
:100D8000BF2E09C034FE0AC0292F2660B22E06C02D
:100D900028E030E005C020E130E002C020E132E090
:100DA000F801B7FE07C060817181828193810C5F79
:100DB0001F4F06C06081718180E090E00E5F1F4F81
:100DC000A3010E94C507882E8618FB2DFF773F2EB2
:100DD00036FE0DC0232D2E7FA22E891458F434FE2A
:100DE0000BC032FC09C0832D8E7EA82E05C0B82C06
:100DF000A32C03C0B82C01C0B92CA4FE0FC0FE0167
:100E0000E80DF11D8081803321F49A2D997EA92E61
:100E100009C0A2FE06C0B394B39404C08A2D86789C
:100E200009F0B394A3FC11C0A0FE06C0B21488F46C
:100E3000280C922C9B180EC0B21460F4B60180E20C
:100E400090E00E948907B394F7CFB21418F42B18DE
:100E500002C0982C212CA4FE10C0B60180E390E0C3
:100E60000E948907A2FE17C0A1FC03C088E790E09A
:100E700002C088E590E0B6010CC08A2D867859F052
:100E8000A1FE02C08BE201C080E2A7FC8DE2B601A8
:100E900090E00E948907891438F4B60180E390E05D
:100EA0000E9489079A94F7CF8A94F301E80DF11D07
:100EB0008081B60190E00E9489078110F5CF222041
:100EC00009F442CEB60180E290E00E9489072A949C
:100ED000F6CFF6018681978102C08FEF9FEF2B96A8
:100EE000E2E10C943F08FC01059061507040011054
:100EF000D8F7809590958E0F9F1F0895FC01615043
:100F0000704001900110D8F7809590958E0F9F1F2B
:100F100008950F931F93CF93DF93FB01238121FD4E
:100F200003C08FEF9FEF2CC022FF16C04681578170
:100F3000248135814217530744F4A081B1819D017A
:100F40002F5F3F4F318320838C93268137812F5F22
:100F50003F4F3783268314C08B01EC01FB010084D3
:100F6000F185E02D0995892BE1F6D80116968D9132
:100F70009C911797019617969C938E931697CE0186
:100F8000DF91CF911F910F910895FA01AA27283080
:100F900051F1203181F1E8946F936E7F6E5F7F4F46
:100FA0008F4F9F4FAF4FB1E03ED0B4E03CD0670FC2
:100FB000781F891F9A1FA11D680F791F8A1F911D15
:100FC000A11D6A0F711D811D911DA11D20D009F465
:100FD00068943F912AE0269F11243019305D3193A7
:100FE000DEF6CF010895462F4770405D4193B3E090
:100FF0000FD0C9F7F6CF462F4F70405D4A3318F037
:10100000495D31FD4052419302D0A9F7EACFB4E0E7
:10101000A6959795879577956795BA95C9F700979F
:101020006105710508959B01AC010A2E0694579540
:10103000479537952795BA95C9F7620F731F841F97
:10104000951FA01D08952F923F924F925F926F922D
:101050007F928F929F92AF92BF92CF92DF92EF9248
:10106000FF920F931F93CF93DF93CDB7DEB7CA1BC9
:10107000DB0B0FB6F894DEBF0FBECDBF09942A88F4
:10108000398848885F846E847D848C849B84AA849C
:10109000B984C884DF80EE80FD800C811B81AA8129
:1010A000B981CE0FD11D0FB6F894DEBF0FBECDBFF4
:0810B000ED010895F894FFCF53
:1010B80041A042A1E045A3A4A5A64BA74D484FA82F
:1010C800504354A9AA58E1ABACE2ADAE62AFB0B19F
:1010D80061B2B3B4E365B6B7B8B9BABBBCBD6FBE4D
:1010E8007063BF79E478E5C0C1E6C2C3C4C5C6C7AA
:0410F8002566000069
:00000001FF
